:020000040000FA
:10000000380600200903000011030000130300005C
:100010001503000017030000190300000000000092
:100020000000000000000000000000001B030000B2
:100030001D030000000000001F030000BD100000B1
:10004000230300002503000027030000290300000C
:100050002B030000351200002F03000031030000C5
:1000600033030000350300003703000039030000AC
:100070003B0300003D0300003F030000410300007C
:10008000430300004503000047030000490300004C
:100090004B0300004D0300004F030000510300001C
:1000A00053030000550300005703000059030000EC
:1000B0005B0300005D0300005F03000061030000BC
:1000C000630300006503000067030000690300008C
:1000D0006B0300006D0300006F030000710300005C
:1000E000730300007503000077030000790300002C
:1000F0007B0300007D0300007F03000081030000FC
:1001000083030000850300008703000089030000CB
:100110008B0300008D0300008F030000910300009B
:10012000930300009503000097030000990300006B
:100130009B0300009D0300009F030000A10300003B
:10014000A3030000A5030000A7030000C1030000F3
:100150000000000000000000C3030000C503000011
:10016000C7030000C903000000000000CB0300002B
:10017000CD030000CF030000D1030000D303000033
:10018000D5030000D7030000D9030000DB03000003
:10019000DD030000DF030000E1030000E3030000D3
:1001A000E5030000E7030000E9030000EB030000A3
:1001B000ED030000EF030000F1030000F303000073
:1001C000F5030000F7030000F9030000FB03000043
:1001D000FD030000FF030000010400000304000011
:1001E0000504000007040000090400000B040000DF
:1001F0000D0400000F0400001104000013040000AF
:1002000000F002F800F05CF80AA090E8000C8244CC
:100210008344AAF10107DA4501D100F051F8AFF2A9
:10022000090EBAE80F0013F0010F18BFFB1A43F0D4
:1002300001031847B0320000D03200000A444FF0EA
:10024000000C10F8013B13F0070408BF10F8014B35
:100250001D1108BF10F8015B641E05D010F8016B7A
:10026000641E01F8016BF9D113F0080F1EBF10F8DE
:10027000014BAD1C0C1B09D16D1E58BF01F801CB01
:10028000FAD505E014F8016B01F8016B6D1EF9D584
:100290009142D6D370470000002300240025002699
:1002A000103A28BF78C1FBD8520728BF30C148BFD9
:1002B0000B6070471FB502F04BFE1FBD10B510BD9F
:1002C00000F059F91146FFF7F5FF01F01DFB00F0B2
:1002D00077F903B4FFF7F2FF03BC00F07FF90000E9
:1002E000EFF3108072B67047EFF310807047EFF3B2
:1002F000108062B6704730BF704780F31188704736
:10030000EFF311807047000045488047454800479B
:10031000FEE7FEE7FEE7FEE7FEE7FEE7FEE7FEE7B5
:10032000FEE7FEE7FEE7FEE7FEE7FEE7FEE7FEE7A5
:10033000FEE7FEE7FEE7FEE7FEE7FEE7FEE7FEE795
:10034000FEE7FEE7FEE7FEE7FEE7FEE7FEE7FEE785
:10035000FEE7FEE7FEE7FEE7FEE7FEE7FEE7FEE775
:10036000FEE7FEE7FEE7FEE7FEE7FEE7FEE7FEE765
:10037000FEE7FEE7FEE7FEE7FEE7FEE7FEE7FEE755
:10038000FEE7FEE7FEE7FEE7FEE7FEE7FEE7FEE745
:10039000FEE7FEE7FEE7FEE7FEE7FEE7FEE7FEE735
:1003A000FEE7FEE7FEE7FEE7FEE7FEE7FEE7FEE725
:1003B000FEE7FEE7FEE7FEE7FEE7FEE7FEE7FEE715
:1003C000FEE7FEE7FEE7FEE7FEE7FEE7FEE7FEE705
:1003D000FEE7FEE7FEE7FEE7FEE7FEE7FEE7FEE7F5
:1003E000FEE7FEE7FEE7FEE7FEE7FEE7FEE7FEE7E5
:1003F000FEE7FEE7FEE7FEE7FEE7FEE7FEE7FEE7D5
:10040000FEE7FEE7FEE7FEE7FEE7FEE7FEE7FEE7C4
:10041000FEE7FEE704480549034A054B7047000024
:1004200015120000010200003804002038060020E8
:100430003804002053EA020C00F069802DE9F04BEB
:100440004FF00006002B1FBFB3FA83F503FA05F443
:1004500024FA05F65E4012BF1643B2FA82F502FA9C
:1004600005F4C5F120051EBF22FA05FC44EA0C0480
:10047000203556EA044C4FEA144418BF641C4FF070
:1004800000084FF00009904271EB030C39D30029AA
:1004900019BFB1FA81F701FA07F6B0FA80F700FA4E
:1004A00007F6C7F120071EBF20FA07FC46EA0C0634
:1004B0002037B6FBF4FCA7EB0507103F07F01F0B36
:1004C000CBF120060CFA0BFB2CFA06F644BFB34620
:1004D0000026202FA4BF5E464FF0000B5BEA060CFF
:1004E00008BF4FF0010B19EB0B09ABFB027C48EB8B
:1004F0000608C01B06FB02CC0BFB03CC71EB0C0106
:10050000C1E70B46024641464846BDE8F08B13B5AD
:100510004FF000004FF00001AFF30080BDE81C4039
:1005200070474FF0000200B51346944696462039B6
:1005300022BFA0E80C50A0E80C50B1F12001BFF49C
:10054000F7AF090728BFA0E80C5048BF0CC05DF802
:1005500004EB890028BF40F8042B08BF704748BF50
:1005600020F8022B11F0804F18BF00F8012B7047C4
:10057000704770477047754600F02CF8AE4605008E
:100580006946534620F00700854618B020B5FFF7AE
:1005900041FFBDE820404FF000064FF000074FF04C
:1005A00000084FF0000B21F00701AC46ACE8C00991
:1005B000ACE8C009ACE8C009ACE8C0098D4670479A
:1005C00010B50446AFF300802046BDE81040FFF7A9
:1005D00080BE000000487047D40300200149182065
:1005E000ABBEFEE7260002007047002100E0491C78
:1005F0008142FCD37047D0F8003412F0010F14BFD1
:100600000B438B43C0F8003412F0020FD0F82024C3
:1006100014BF114322EA0101C0F8201470472DE9EC
:10062000F00301264FF0000C0325C2F3411706FA30
:100630000CF40C4211D0D0F8C48F4FEA4C0405FAE8
:1006400004F928EA0908C0F8C48FD0F8C48F07FA63
:1006500004F448EA0404C0F8C44F0CF1010C0CF097
:10066000FF0CBCF1080FE2D3D0F800C512F0010F67
:1006700014BF4CEA010C2CEA010CC0F800C5D0F8FC
:1006800004C512F0020F14BF4CEA010C2CEA010C55
:10069000C0F804C5D0F808C512F0040F14BF4CEA26
:1006A000010C2CEA010CC0F808C5D0F818C512F0EE
:1006B000080F14BF4CEA010C2CEA010CC0F818C555
:1006C00012F0100FD0F83C2514BF0A438A43C0F83B
:1006D0003C25D0F80C2513F0010F14BF0A438A43C0
:1006E000C0F80C25D0F8102513F0020F14BF0A43F0
:1006F0008A43C0F81025D0F8142513F0040F14BF56
:100700000A438A43C0F81425D0F81C2513F0080FBB
:1007100014BF0A438A43C0F81C25D0F8442513F4BB
:10072000007F14BF0A438A43C0F84425D0F840250F
:1007300013F4407F14BF0A438A43C0F84025D0F821
:100740002825002B0CBF114322EA0101C0F828150F
:10075000BDE8F003704700000E4AC0F30741D26EB7
:1007600001238B401A420C4A1ABF02EBC1014968AF
:1007700052F83110020AD1F82C354FF00F0C0CFA58
:1007800002FC00F00F0023EA0C0390401843C1F86C
:100790002C05704700E00F40F430000050F82100B5
:1007A000704730B50C4605460022FFF724FF21466E
:1007B0002846BDE8304008230122FFF730BF30B59E
:1007C0000C46054608230122FFF729FF214628464B
:1007D000BDE830400122FFF70EBF30B50C4605469C
:1007E0000222FFF708FF21462846BDE830400923D2
:1007F0000122FFF714BF30B50C4605460222FFF771
:10080000FAFE21462846BDE8304008230122FFF7C2
:1008100006BF30B50C4605460222FFF7ECFE214626
:100820002846BDE8304008230122FFF7F8BE30B566
:100830000C4605460222FFF7DEFE21462846BDE8AB
:10084000304008230122FFF7EABE40F8212070471C
:100850002DE9F04104460E4600BF1C4800F078F830
:100860000028FAD100222146184800F0B9F8314694
:10087000164800F077F80721144800F06FF800BF21
:10088000124800F05FF80028FAD1104800F071F823
:10089000C7B20120FFF7A9FE012221460B4800F054
:1008A0009FF80721094800F059F800BF074800F0F9
:1008B00049F80028FAD1054800F052F8C5B20120E5
:1008C000FFF793FE2846BDE8F081000000000240DB
:1008D0002DE9F04104460F46154600BF184800F0C8
:1008E00037F80028FAD100222146154800F078F8A0
:1008F0003946134800F036F80321114800F02EF86D
:1009000000BF0F4800F024F80028FAD10C4800F08E
:1009100030F8C6B229460A4800F024F805210848F4
:1009200000F01CF800BF064800F012F80028FAD1C9
:10093000034800F01EF8C6B23046BDE8F081000062
:1009400000000240406810F0400018BF01207047CE
:10095000406810F0010018BF0120704741607047E7
:100960008068704781607047016A41F01001016240
:100970007047406810F0010F05D110F0120F1CBF36
:1009800000F01C007047002070470000036A43F02D
:1009900010030362002A14BF0E4A0F4A02EB8203BF
:1009A00001EB830302EB820292005B1EB3FBF2F2C7
:1009B000521EC260D0F8C02F12F0010F08BF70475E
:1009C000064A1144521CB1FBF2F1491E41F080016C
:1009D000C1607047801A0600A08601007F4737017A
:1009E00042EA4101016070471649042804BF0868C3
:1009F00040F4803018D0052804BF086840F4003067
:100A000012D0062812D00F2815D0102838BF7047F2
:100A1000103800F01F01012202FA01F142090A48D0
:100A200050F822000160704708607047086840F481
:100A30008020086070474FF0E020016941F002011A
:100A40000161704724ED00E04032000010B5FFF76F
:100A50004EFC002818BF012010BDD0F8C82F22F08E
:100A6000070222F480721143C0F8C81F704708447F
:100A700001686FF352011143016012F0020F14BFBD
:100A8000B0218C21016214BF4FF4306140F60C019B
:100A900041627047425822F001024250704742586A
:100AA00042F00102425070470844016811F0020F01
:100AB00014BF5108511E01617047002A826814BF9B
:100AC000114322EA01018160704721F03F0318447D
:100AD000036813F0020F18BF520803699A1A11F045
:100AE000010F14BFC26182617047000010B5034955
:100AF000034800F02FF90349086010BD0024F400FA
:100B0000100000F10000002010B5274800F098FA0E
:100B100000BF254800F0A8FA0028FAD02248C01CDF
:100B200000F08EFA00BF2048C01C00F09DFA00289B
:100B3000F9D01D48C01D00F083FA00BF1A48C01D3F
:100B400000F092FA0028F9D01748001D00F078FA5A
:100B500000BF1548001D00F087FA0028F9D01F21BA
:100B60001248FFF72CFE03211148FFF728FE03214E
:100B70001048FFF716FE20210F48FFF720FE0F4810
:100B8000FFF7EAFD20210C48FFF743FE0A2301226C
:100B900003210848FFF743FD0A2366220F2103487B
:100BA000FFF73DFD10BD0000050800F000500240B9
:100BB0000040064000D00340001006400614090023
:100BC00010B51E4800F03CFA1D4800F039FA1D48E7
:100BD000FFF7C2FD1C48FFF7BFFD04211B48FFF7CC
:100BE0000AFE08211948FFF7F8FD0122184801689C
:100BF0001848FFF7CBFE1748FFF7B6FEFF220C217F
:100C00002220FFF765FE044600220D212220FFF777
:100C10005FFE044600220E212220FFF759FE044603
:100C2000002203211820FFF753FE0446FF22012172
:100C30001820FFF74DFE044610BD0000002000F014
:100C4000010800F002080100020C01000050004001
:100C5000000000200000024070B50446164800F075
:100C6000EFF900BF144800F0FFF90028FAD0002186
:100C70001248FFF7F2FE00224FF480710F48FFF791
:100C8000F6FE22464FF480710C48FFF70DFF254613
:100C9000E01704EB9070821040F207110748FFF74D
:100CA00014FF012280210548FFF707FF4FF48071F0
:100CB0000248FFF7F4FE70BD004000F000800240E3
:100CC00010B5074800684FF47A71B0FBF1F4204684
:100CD00000F0EEF900F0DEF900F0E3F910BD0000DD
:100CE0000000002010B5144800F0AAF9134800F0E5
:100CF000A7F900BF114800F0B7F90028FAD0012089
:100D0000FFF72AFD40F20140FFF726FD03214FF0D7
:100D10004020FFF78CFD60234FF4E1320848016862
:100D2000084800F0C0FA18220221064800F0F2FA42
:100D300005A000F0FDFA10BD001800F0000800F05A
:100D40000000002000C000400D0A48656C6C6F2157
:100D50000D0A00002DE9F003AF4D02462868AF4BA5
:100D60001840A0F18053B3F5A02359D002F0380900
:100D7000DFF8AC82C2F38414B9F1100F25D0B9F1B9
:100D8000300F04BF47F230504FF400130DD04FF036
:100D90003800904304BF4FF40040C30105D012F067
:100DA000380F1CBF0020034613D09E4F12F4605F23
:100DB0004FF0000618BF00222CD057F832404445AF
:100DC0007DD307EBC2025268E1E0002340461524C0
:100DD000EBE7A4F10900122822D29348D5F87CC091
:100DE0004FF04C7350F824002CF01C0C072CA8BFBB
:100DF0004CF0100CC5F87CC02E6D4FF4002C16F48E
:100E0000807FD2D1BCF1010C0AD02E6D16F4807F08
:100E1000F8D0CAE712F0380F18BFB9F1100F04D09C
:100E2000BDE8F0034FF000007047C2F30268DFF83E
:100E3000FCC14FF0000257F83290E14503D307EBB5
:100E4000C202526803E0521C062AF4D33246C5F8A7
:100E5000C020D5F8B020DFF8D8C102EA0C0242F079
:100E60000042C5F8B020DFF8CCC1A4F109024C1E45
:100E70005CF828C0A444BCFBF1FCD5F8B0101943C1
:100E8000C5F8B01008EBC80101EB41046A4902EB58
:100E9000420201EBC40101EB82046468C5F86441BD
:100EA000D5F864416FF0FF0808EB0C2C44EA0C0CF9
:100EB000C5F864C151F82210D5F8602100E061E066
:100EC00002F400021143C5F86011D5F86011D5F89D
:100ED0006021C1F38921C2F30904D5F86421C2F36A
:100EE000042202F1010CD5F8642102F01F02521C09
:100EF000B0FBF2F04A09C2F100084443424301EB5F
:100F0000481104EB5212484302EB9020B0FBFCF076
:100F100041080846002257F832C0844503D307EB46
:100F2000C200466802E0521C062AF4D3C5F8C0602D
:100F3000D5F8600110F4000F1DBFD5F8B00040F0E7
:100F40008040C5F8B000D5F8600104BF40F400004F
:100F5000C5F860014FF40040D5F8682112F0010F88
:100F600002D1401E0028F7DC002808BF002148D02D
:100F7000D5F8B000184340F0010040F01040C5F82B
:100F8000B0003EE0521C062AFFF417AF3246C5F807
:100F9000C020D5F8602122F40002C5F86021D5F800
:100FA000B020DFF898C002EA0C0242F00042C5F817
:100FB000B020002908BF4FF0000C0AD0B0FBF1FCB4
:100FC000BCF1000F18BFACF1010C0CF10101B0FB3A
:100FD000F1F10846002257F83240844203D307EB70
:100FE000C200466802E0521C062AF4D3C5F8C0606D
:100FF000D5F8B00043EA8C22104340F00040C5F819
:10100000B000D5F8B00020F47000C5F8B000BDE81D
:10101000F00308467047000000E00F400000FF703A
:101020000024F400B43400009832000040787D01C0
:1010300000FC0FE09032000004330000FF0300EFDB
:10104000C0F307230749C0B2194401F07043C1F34C
:10105000130143EA411141EA800040F0007001228F
:101060000260704700E60F40C0F307220849C0B293
:10107000114401F07042C1F3130142EA411141EA07
:10108000800040F000700068002818BF0120704701
:1010900000EA0F404FF0E020016941F005010161D5
:1010A00070474FF0E020016941F002010161704793
:1010B0004FF0E021401E486170470000434800881F
:1010C00028B142480088401E4049088005E00A20B7
:1010D0003E49088001203E4908703E48008828B1FA
:1010E0003C480088401E3B49088005E005203949FE
:1010F00008800120384908703848008828B13748EE
:101100000088401E3549088006E04FF47A70334964
:1011100008800120324908703248008828B13148DF
:101120000088401E2F49088005E096202D49088040
:1011300001202D4908702D48008828B12B480088CF
:10114000401E2A49088005E019202849088001200E
:10115000274908702748008828B126480088401E83
:101160002449088005E028202249088001202249DE
:1011700008702248008828B120480088401E1F4976
:10118000088005E028201D49088001201C490870BE
:101190001C48008828B11B480088401E1949088057
:1011A00005E0FA2017490880012017490870174800
:1011B000008828B115480088401E1449088004E0C2
:1011C0000120124908801249087070475E01002012
:1011D0006F0100205C0100206E01002062010020F0
:1011E00071010020600100207001002064010020D6
:1011F000720100206C0100207601002066010020B1
:101200007301002068010020740100206A010020A1
:10121000750100200448006840F47000024908602D
:10122000024803490860704788ED00E00024F4009C
:101230007801002070B5002401210E4800F073F8F9
:10124000054629460B4800F068F808E0094800F018
:1012500017F8C2B22046611CCCB207490A540548AF
:1012600000F01CF80028F1D103490855012003497A
:10127000086070BD00C00040D40100208400002040
:10128000816911F0100F0CBF00684FF0FF307047FC
:10129000826912F0200FFBD1016070478069012143
:1012A00021EA10107047D0F818C01CF0080FFAD1CE
:1012B000D0F82CC02CF0100CC0F82CC0D0F830C0E6
:1012C0002CF0010C2CF4407CC0F830C0D0F830C0B9
:1012D000B1EB021F34BF4CF0200C2CF0200CC0F8F6
:1012E00030C038BF5208C900B1FBF2F1491C4908AF
:1012F0008A09426201F03F018162C362002181617B
:10130000C16A41F01001C162016B40F20132114328
:101310000163704711434163704741647047826BBA
:10132000114381637047002914BF006CC06B704784
:1013300010B5044604E014F8011B0348FFF7A8FFAA
:1013400020780028F7D110BD00C0004030B589B02A
:101350000446202101A8FFF7E4F8364850F824009D
:101360000290354850F824000390601E3349085C11
:10137000012857D132480078A8B1002030490870C0
:1013800030480078401C2F490870C4F103000978E8
:10139000884208DC2C48007880F001002A49087057
:1013A000002028490870012C01D1022000E0012012
:1013B0002549097800FB01F203212448FFF745FA8B
:1013C000002023490870234890FBF4F085B228469A
:1013D000FFF742FC04F10800C1B201A801F0D0FC03
:1013E00000212220FFF734FAF72805D101201A49FD
:1013F00008701A4908701AE017480078B8B100213F
:10140000601E0E4A11544FF480711548FFF742FBDD
:1014100000201449088010490870134908701349C6
:10142000087004E04FF480710D48FFF733FB09B0FA
:1014300030BD00007C010020280000206800002052
:1014400074010020880000207E000020004006403B
:101450006A0000200024F4006D00002080000020BD
:10146000008002406E00002066000020670000201F
:1014700000B589B0202101A8FFF753F8A0484068C3
:1014800002909F48806803909D48006904909C48A2
:10149000006904909A480069059011E09949029802
:1014A0004860039888600498C860059808610698A9
:1014B0004861079888610898C861012092490860CE
:1014C000914800680028E9D090480078002874D13D
:1014D0008F4801788B4801F053FC8E480078002833
:1014E0006AD000208B49087000212220FFF7B0F954
:1014F000FD2805D1012088498870884908700AE0D4
:101500008548807820B182480068401C8049086086
:101510000020814988707E480068052802D3022097
:101520007B49086000212220FFF792F9FB2805D1B2
:1015300001207949C8707949087013E07648C0786D
:1015400068B170487249096850F82100401C6D4923
:101550006F4A126841F82200084600F095FE00200C
:101560006D49C87000212220FFF772F9F72805D1D4
:101570000120694908716949087013E066480079DB
:1015800068B160486249096850F82100401E5D4911
:101590005F4A126841F82200084600F075FE0020FC
:1015A0005D49087101215E48FFF7F8F830B9012064
:1015B0005C490870594908701CE033E059480078CC
:1015C000C0B1504800F060FE4E4840684C49486049
:1015D0004C488068886003904A48C068C8604948A1
:1015E00000690861012049490870002046490860E7
:1015F0004C4908704C48007880B100204A49087076
:101600004548C07850B13F484149096850F8210029
:10161000401C3C493E4A126841F82200394800F01B
:1016200033FE6AE00021364801F0AAFB3F4800780B
:10163000D8B100203D4908703D4908700121384863
:10164000FFF7ACF828B90120364908703349087013
:101650000BE03448007840B100203249087035482A
:10166000007880F001003349087033480078E8B30F
:1016700000203149087031480068401C2F4908603B
:1016800008460068022838D1002008601C4800691C
:1016900028490978401A1A49086108460069002853
:1016A00013DA0846C06828B90846806810B90846A9
:1016B000406838B13B20124908610846C068401EA6
:1016C000C86002E000200E4908610D48C06800288B
:1016D00006DA3B200A49C86008468068401E8860D8
:1016E00007488068002808DA3B2000E005E004494C
:1016F000886008464068401E486009B000BD000090
:1017000010010020B40100209000002057010020AB
:101710009800002072010020A80100208000002015
:1017200000D003406C0000207101002073010020F4
:101730002C010020580100206E01002094000020A0
:1017400070B504460D46002206212220FFF7C0F89E
:101750003D480068B0B942F21071E06948436169E0
:1017600001EBC10202EB011100EB8100A169084409
:101770000021364A10605160354833490860012025
:10178000344908703448007840B10020324908706C
:101790003248007880F00100304908702D490978FE
:1017A000481D00EBD071B5EB610F0CD12B480078D0
:1017B00028B92B482749097850F8210000E000207B
:1017C0002849088006E026482249097830F8210097
:1017D000244908801C4800231C490268086849689D
:1017E000FEF728FE20490E5C324605212220FFF735
:1017F0006FF81E4800681E490968884206D11948DA
:10180000027806212220FFF763F804E00022062177
:101810002220FFF75DF80C4800230C490268086895
:101820004968FEF707FE0948026043600648006801
:101830000A21B0FBF1F00449086006480078401C1A
:101840000449087070BD00004C00002040000020DA
:10185000809698008A000020700100207E00002001
:10186000C80000200C010020EC000020A000002097
:101870009C00002010B51D480078002834D00020BE
:101880001A490870002206212220FFF721F8184982
:1018900018480078401C31F8200017490880174884
:1018A00014490978425C05212220FFF711F81448F9
:1018B000006814490968884206D10F480278062159
:1018C0002220FFF705F804E0002206212220FEF77F
:1018D000FFFF08480078401C064908700846007859
:1018E000032801D10020087010BD00007501002000
:1018F000C8000020560100200C01002059010020E2
:10190000A00000209C000020FFF7F0F8FFF7D8F9B6
:10191000FFF756F9FFF7E6F9FFF7F6F85021F6481A
:10192000FFF7FDFC1520FFF75FF8FFF78FF80020A9
:10193000F2490860F2490860F24908606CE38FE000
:10194000002206212220FEF7C3FFEF48006858B9A5
:10195000EE4800680021EE4A10605160ED48EA4907
:1019600008600120E7490860E7480023E849026869
:1019700008684968FEF75EFDE7490C5C22460521D0
:101980002220FEF7A5FFE5480078A8B90022012132
:101990001820FEF79DFFE24908700F221146E1482A
:1019A000FEF753FFE048D749096810F821200621C7
:1019B0002220FEF78DFF13E0002206212220FEF7F1
:1019C00087FFFF2201211820FEF782FFD44908700B
:1019D00000220F21D348FEF738FF0020CF490870BE
:1019E000C9480023CA49026808684968FEF722FD11
:1019F000C74802604360C44800680A21B0FBF1F0A8
:101A0000C1490860BF480068401CBE4908604FF4E7
:101A1000FA50FEF7EAFDC548007838B10020C34906
:101A20000870C3480078401CC1490870C049087854
:101A3000C11700EB91718910A0EB810111B9012050
:101A4000B6490870BA480078082809D10120B94978
:101A50000870FF2201211820FEF73AFFB0490870F4
:101A6000B448007800283FF46BAFB34800880828DA
:101A70003ED2DFE800F0041318232F33373AAF4883
:101A80000078012805D1002206212220FEF720FF40
:101A900003E00021AA4801F073F929E00021A848D9
:101AA000FFF74EFE24E0A7480078012802D1FFF797
:101AB0004DFC02E0012000F0F3FC19E0A2480078A0
:101AC000012803D10220FFF741FC02E0022000F0D0
:101AD000E7FC0DE09A4800F055FF09E0984800F057
:101AE00025FE05E0FFF7C4FC02E0FFF7C3FE00BFE0
:101AF00000BF9648007898B3002094490870904839
:101B00000069401C8E49086191480068401C90495A
:101B1000086090480068401C8E4908608C48006846
:101B2000032813D10846006889490968B0FBF1F021
:101B3000401EC0F1030101208840C4B222460F219B
:101B40007848FEF782FE00208149086081480068DD
:101B50000C2802D100207F490860794800F094FBEE
:101B60007D480078012804D100207B4908707B491A
:101B700008707B480078C8B3002079490870714824
:101B8000007838B97048007820B974480078401C53
:101B9000724908706A4840687249496888420FD1A2
:101BA0006748806870494968884209D16F48007861
:101BB000012805D102206049088001206149087090
:101BC0005F4840686749896888420FD15C488068EF
:101BD00065498968884209D164484078012805D15F
:101BE0000320554908800120574908705B48007858
:101BF0000F2807D15148007820B900204E490880AD
:101C0000564908705A48007888B100205849087031
:101C100058480068401C5749086008460068401E44
:101C200055490968884202D100205249086053484A
:101C3000007800285FD00020504908700021222041
:101C4000FEF706FEFC2801D100F05AFB00212220FD
:101C5000FEF7FEFDF3280ED147480068401C4649B8
:101C6000086000204349086043480068032802D107
:101C700000204149086000212220FEF7E9FDFE28EE
:101C800005D101203E4948703349087020E03C48A6
:101C9000407801281CD100203A4908602648008875
:101CA000401C2549088000203749087037490870D2
:101CB0003749087037490870374908703749087044
:101CC0000120374908700020364908702C494870B7
:101CD00019480088082802D10020174908800021EF
:101CE0002220FEF7B5FDEF285ED10120244948717E
:101CF0001949087066E0AFE000C0004048000020CD
:101D00004C0000208C000020500000200801002022
:101D10003800002080969800EC000020A8000020E9
:101D20000400002000500240C80000207401002080
:101D30002D010020700000206E0000206A000020AD
:101D40000800002066000020670000206F010020CE
:101D50005400002058000020800000202C010020AA
:101D6000710100207C010020280000206800002074
:101D700075010020A00000209C00002076010020BA
:101D8000A8010020900000207F00002071000020AA
:101D9000760000207200002074000020570100200F
:101DA0005801002075000020FC48407938B1FC48FB
:101DB000007808B9012000E00020F94908700020EF
:101DC000F649487100212220FEF742FDDF2805D1A7
:101DD0000120F2498871F34908700DE0EF488079DD
:101DE00038B1EF48407808B9012000E00020EC4904
:101DF00048700020E949887100212220FEF728FD63
:101E0000BF2805D10120E549C871E64908700BE0FB
:101E1000E248C07928B1E448007880F00100E24946
:101E200008700020DD49C87100212220FEF710FD56
:101E30007F2805D10120D9490872DA4908700BE0E2
:101E4000D648007A28B1D948007880F00100D749F7
:101E500008700020D1490872D3480078B8BBD44933
:101E6000D4480088401C51F82000C0F1FF00C2B2E5
:101E700001211820FEF72CFDC9480078012803D164
:101E80000220CD49087002E00020CB490870C44808
:101E90004078012802D1C949087002E00020C749F2
:101EA0000870C5480078C54909780844C4490870D5
:101EB000084602780321C348FEF7C7FCBB480078F8
:101EC00030B910221146C048FEF7BFFC05E012E011
:101ED00000221021BC48FEF7B8FCB4480078012865
:101EE00018D1BA4840680C2814D97F220121182043
:101EF000FEF7EEFC0EE0FF2201211820FEF7E8FCC1
:101F000000220321AF48FEF7A0FC00221021AE48BA
:101F1000FEF79BFCAE48006801287DD1AD480078F3
:101F200047287AD1AB48407845287ED1A9488078A7
:101F300054287AD1A748C078442835D1A5480079DB
:101F4000412831D1A348407954282DD1A148807926
:101F5000452829D19D4840690A21B0FBF1F0303075
:101F60009D490870994840690A21B0FBF1F201FBD4
:101F700012003030984948702E208870934880694C
:101F80000A21B0FBF1F030309349C8708F48806966
:101F90000A21B0FBF1F201FB120030308E490871CA
:101FA0000846FFF7C5F95FE18A48C078542838D160
:101FB00088480079492834D1864840794D2830D165
:101FC0008448807945282CD1804840680A21B0FB9C
:101FD000F1F03030804908707C4840680A21B0FB3D
:101FE000F1F201FB120030307B4948703A208870D2
:101FF000764880680A21B0FBF1F030307649C8702D
:10200000724880680A21B0FBF1F201FB1200303007
:1020100071490871084601E029E106E0FFF788F9F7
:1020200022E16EA0FFF784F91EE16A480078532888
:102030007ED1684840784528FAD16648807854288F
:10204000F6D16448C078442827D1624800794128F5
:1020500023D16048407954281FD15E4880794528B3
:102060001BD15C48007A30385A49C979303901EBC4
:10207000810100EB4100554948615648807A30386B
:102080005449497A303901EB810100EB41004F4955
:10209000886157A0FFF74CF9E6E04E48C078542815
:1020A00027D14C480079492823D14A4840794D2806
:1020B0001FD14848807945281BD14648007A3038DE
:1020C0004449C979303901EB810100EB41003F49B6
:1020D00048604048807A30383E49497A303901EBCF
:1020E000810100EB41003949886045A0FFF720F9E4
:1020F000BAE03848C07841284FD1364800794C289A
:102100004BD1344840794D2847D132488079312825
:1021100020D13048007A30382E49C979303901EB66
:10212000810100EB41003A4948602A48807A00E08A
:102130007CE030382749497A303901EB810100EBE6
:1021400041003449486001201549087028A0FFF774
:10215000EFF889E01F48807932285DD11D48007A68
:1021600030381C49C979303901EB810100EB41005D
:10217000274988601748807A30381649497A3039BB
:1021800001EB810100EB41002249886001200449F4
:10219000487017A0FFF7CCF866E042E0A8010020E5
:1021A00068000020800000206A00002064000020F9
:1021B000C80000206E0000204801002049010020D6
:1021C0004701002000400640005002400800002067
:1021D00084000020D4010020D4020020496E7661E2
:1021E0006C696420496E707574210D0A000000004E
:1021F000537563636573736564210D0A0000000005
:1022000053756363657373656421210D0A000000D3
:102210007C01002028000020AFF24000FFF788F882
:1022200022E0AFF24800FFF783F81DE01148007884
:10223000522815D10F484078452811D10D48807893
:1022400053280DD10B48C078452809D10948007999
:10225000542805D100F054F807A0FFF769F803E00F
:10226000AFF28800FFF764F8002006490860FFF726
:1022700066BB0000D401002052657365746564215B
:102280000D0A0000840000200169642904D30021A4
:102290000161C168491CC160C1683C2904D30021A7
:1022A000C1608168491C816081683C2904D3002198
:1022B00081604168491C41604168182904D30021AC
:1022C00041608169491C81610B4BD0E9052133F8DC
:1022D0001220914204D9012181614169491C416167
:1022E00041690C2906D9012141610449C969491C88
:1022F000024AD16170470000AE00002008000020B3
:1023000000203B49087048708870C8700871487197
:102310008871C871374908703749087037490870A3
:1023200037490880374908703749087037490870BD
:102330003749087001203749088005203649088050
:102340000120364908800020354908703549087059
:10235000012035490870002034490860344908706C
:1023600034490870344908703449087034490860A9
:1023700034490860344908603449087034490860B9
:102380004860012088600020C860086148613149C8
:1023900008703149087031490870022030490860DE
:1023A00001203049087000202F490860486088608B
:1023B0002E49086048600120886000202C49086090
:1023C0002C4908602C4908602C4908602C49086099
:1023D0002C4908602C4908702C4908702C49087059
:1023E0002C4908702C49087048702C4908707047B7
:1023F000A80100206B0000206C0000206D00002070
:102400006E0000207000002071000020720000208B
:1024100073000020780000207A0000207C0000205B
:102420007E0000207F00002080000020840000202B
:1024300088000020890000208A0000208B000020F6
:1024400094000020A00000209C000020A800002094
:10245000100100202D01002056010020570100200E
:1024600098000020580100207C0100202800002056
:10247000480000204C0000205000002054000020A4
:10248000580000206000002064000020650000204B
:102490006600002067000020680000206A0000201D
:1024A00030B589B00446202101A8FEF73AF89148DA
:1024B00050F824000290904850F82400039011E056
:1024C0008E4902984860039888600498C86005980F
:1024D000086106984861079888610898C8610120DA
:1024E00087490870864800780028E9D08548007838
:1024F00000287DD18448007800287AD000208249C5
:10250000087000212220FEF7A3F9FD2805D1012043
:102510007E4988707E4908700AE07C48807820B146
:102520007C480088401C7B490880002077498870DF
:1025300078480088032802DB0120764908800021C2
:102540002220FEF785F9FB2805D101206F49C870CC
:102550006F49087013E06D48C07868B167486D49ED
:10256000098850F82100401C64496A4A128841F8E1
:1025700022000846FFF788FE00206449C870002149
:102580002220FEF765F9F72805D101205F4908717F
:102590005F49087010E05D48007950B157485D49C7
:1025A000098850F82100401E54495A4A128841F8BF
:1025B000220000205549087102215748FEF7EEF825
:1025C00018B901205549087011E05448007858B1F5
:1025D000484850F8240049494860474850F82400CA
:1025E000886001204A49087000204C49087001E0C9
:1025F00032E013E001214848FEF7D0F828B9012065
:10260000474908704249087008E04548007810B111
:1026100001203C4908700020414908704148007879
:1026200080B100203F4908703848C07850B1334825
:102630003849098850F82100401C3049354A128831
:1026400041F822002D48FFF71FFE32480578294641
:102650002A4800F095FB4BE00021284800F090FB51
:1026600029480078002843D000202749087001211C
:102670002948FEF793F828B9012029490870244910
:10268000087018E026480078A8B11C48406819492D
:1026900041F8240019488068174941F8240022486D
:1026A0000088401C204908800020164908701C49F9
:1026B00008701349087002211748FEF76FF828B90F
:1026C0000120164908701249087011E0134800787B
:1026D00058B1084850F8240008494860064850F8A6
:1026E0002400886000200749087000200B4908700A
:1026F00009B030BD7C01002028000020B40100207A
:102700007F0000207600002072010020A801002038
:10271000800000207C00002000D003406B000020DF
:102720006C000020710100206E00002070B504468E
:1027300011E0874960684860A0688860E068C86008
:102740002069086160694861A0698861E069C861C1
:102750000120804908707F4800780028E9D07E4831
:10276000007800287ED17D48007800287BD00020AA
:102770007A49087000212220FEF76AF8FD2805D169
:10278000012077498870774908700AE0744880789A
:1027900020B175480088401C7349088000207049AA
:1027A000887071480088072802DD05206E4908807E
:1027B00000212220FEF74CF8FB2805D101206849B2
:1027C000C8706849087010E06548C07850B160482A
:1027D0006549098850F82100401C5D49624A128809
:1027E00041F8220000205E49C87000212220FEF737
:1027F0002FF8F72805D10120594908715949087067
:1028000010E05748007950B151485749098850F8AD
:102810002100401E4E49544A128841F822000020EF
:102820004F49087102215148FDF7B8FF28B901202E
:102830004F4908704B4908700CE04D48007830B1A2
:10284000434960694861A0698861E069C861002006
:102850004749087001214548FDF7A0FF40B9012014
:10286000444901E02BE00CE008703E49087008E0A4
:102870004048007810B101203749087000203D49D8
:1028800008703D48007880B100203B49087034480A
:10289000C07850B12E483449098850F82100401CB6
:1028A0002B49314A128841F822002948FFF7ECFCF5
:1028B0002D48057829462648FEF742FF47E00021CB
:1028C0002348FEF73DFF2548007800283FD0002030
:1028D0002249087001212548FDF760FF28B9012031
:1028E000244908701F49087016E02248007898B102
:1028F0001748406921494861154880698861144832
:10290000C069C86100201B490870134908701C4841
:102910000088401C1A49088002211448FDF73EFF38
:1029200028B90120124908700E4908700FE01048BC
:10293000007848B1064960694861A0698861E0692A
:10294000C86100200449087000200949087070BD62
:10295000B40100207F0000207500002072010020DB
:10296000A8010020800000207A00002000D0034051
:102970006B0000206C000020710100200800002086
:102980006E00002070B5044611E08D496068486013
:10299000A0688860E068C860206908616069486173
:1029A000A0698861E069C86101208649087085488E
:1029B00000780028E9D08448007800287ED1834838
:1029C000007800287BD00020804908700021222058
:1029D000FDF73EFFFD2805D101207D4988707D4926
:1029E00008700AE07A48807820B17B480088401C53
:1029F0007949088000207649887077480088052842
:102A000002DB01207449088000212220FDF720FF0D
:102A1000FB2805D101206E49C8706E49087013E08B
:102A20006B48C07868B166486B49098850F8210046
:102A3000401C6349684A128841F822000846FFF7A3
:102A400023FC00206249C87000212220FDF700FF0E
:102A5000F72805D101205E4908715E49087010E031
:102A60005B48007950B156485B49098850F821000D
:102A7000401E5349584A128841F822000020544908
:102A8000087102215548FDF789FE28B901205449F3
:102A90000870504908700EE05148007840B148492C
:102AA00060684860A0688860E068C8602069086164
:102AB00000204B4908700121484801E030E011E056
:102AC000FDF76CFE28B9012046490870414908709D
:102AD00008E04448007810B101203B49087000200C
:102AE000404908704048007880B100203E49087095
:102AF0003748C07850B132483749098850F821002A
:102B0000401C2F49344A128841F822002C48FFF714
:102B1000BBFB314805782946294800F031F94DE0E2
:102B20000021274800F02CF928480078002845D0DB
:102B300000202649087001212848FDF72FFE28B9FA
:102B4000012028490870234908701AE025480078B8
:102B5000B8B11B4800F04EF8194840682349486056
:102B60001748806888601648C068C86014480069C3
:102B700008611F480088401C1D4908800020194931
:102B8000087002211548FDF709FE28B901201449F3
:102B900008701049087011E01148007858B10849D0
:102BA00060684860A0688860E068C8602069086163
:102BB00000200549087000200949087070BD000018
:102BC000B40100207F00002074000020720100206A
:102BD000A8010020800000207800002000D00340E1
:102BE0006B0000206C000020710100200800002014
:102BF0006E00002070B50446D4E9031001EBC10259
:102C000002EB011100EB810059490969584AD26869
:102C100002EBC20303EB021201EB820188421DD9D1
:102C20000025208AA18901EBC10202EB011100EB12
:102C300081004F49098A4E4A928902EBC20303EB95
:102C4000021201EB8201401A4A49088008460088B6
:102C50000C2190FBF1F0474908801CE00125444815
:102C6000008A4349898901EBC10202EB011100EBA3
:102C70008100218AA28902EBC20303EB021201EB5D
:102C80008201401A3B490880084600880C2190FBCD
:102C9000F1F0384908809DBB00203749086028E0E2
:102CA00008220F213548FDF7D0FD42F21070FDF7E4
:102CB0009CFC04220F213148FDF7C7FD42F2107041
:102CC000FDF793FC02220F212C48FDF7BEFD42F2D6
:102CD0001070FDF78AFC01220F212848FDF7B5FD91
:102CE00042F21070FDF781FC23480068401C224925
:102CF0000860214800681F4909888842D0D333E022
:102D0000FFE700201C49086028E001220F211B4832
:102D1000FDF79BFD42F21070FDF767FC02220F21C8
:102D20001648FDF792FD42F21070FDF75EFC04229A
:102D30000F211248FDF789FD42F21070FDF755FC96
:102D400008220F210D48FDF780FD42F21070FDF7BB
:102D50004CFC09480068401C0749086006480068A8
:102D6000044909888842D0D300200249088070BDF8
:102D700008000020540100208C0000200050024078
:102D800070B504460D46002206212220FDF7A0FD65
:102D900061480068D0BB6148007801281AD160689A
:102DA0000C2817D960680C385D49484340F27122FD
:102DB000A168514300EB0110E16801EBC10202EB95
:102DC000011100EB8100216908440021554A10607F
:102DD000516015E052496068484340F27122A16891
:102DE000514300EB0110E16801EBC10202EB01115C
:102DF00000EB81002169084400214A4A10605160BB
:102E00004948454908600120484908704848007809
:102E1000E0B1002046490870092D01D00A2D0FD1DC
:102E2000C5F10B0043490978884209DC4248007823
:102E300080F001004049087000203E49087005E01C
:102E40003D48007880F001003B490870092D01D011
:102E50000A2D0CD13848007828B938483349097808
:102E600050F8210000E00020354908801BE02F4980
:102E70000978481C00EBD071B5EB610F0CD12E48DE
:102E8000007828B92D482949097850F8210000E038
:102E900000202B49088006E028482449097830F8AA
:102EA0002100274908801C4800231E490268086841
:102EB0004968FDF7BFFA23490E5C324605212220FE
:102EC000FDF706FD2048006820490968884206D1C0
:102ED0001B48027806212220FDF7FAFC04E00022BC
:102EE00006212220FDF7F4FC0B4800230D4902685F
:102EF00008684968FDF79EFA0A4802604360064880
:102F000000680A21B0FBF1F0034908600748007827
:102F1000401C0649087070BD480000206400002075
:102F200040420F0038000020809698008900002061
:102F300070010020880000207E000020C8000020D2
:102F40000C010020EC000020A00000209C000020CC
:102F50004FF04070E1EE100A704700000040004062
:102F600010000000008005401000000000500040EC
:102F700011000000009005401100000000600040BA
:102F80001200000000A00540120000000070004088
:102F90001300000000B00540130000000040024094
:102FA0001400000000C00540140000000050024062
:102FB0002E00000000D005402E00000000600240FE
:102FC0002F00000000E005402F00000000700240CC
:102FD0003000000000F005403000000000D0034049
:102FE00046000000000006404600000000100640B9
:102FF0004700000000200640480000000030064066
:103000007F000000004006408000000000500640A5
:1030100084000000006006408C000000004000407A
:10302000100000000080054010000000005000402B
:1030300011000000009005401100000000600040F9
:103040001200000000A005401200000000700040C7
:103050001300000000B005401300000000400240D3
:103060001400000000C005401400000000500240A1
:103070002E00000000D005402E000000006002403D
:103080002F00000000E005402F000000007002400B
:103090003000000000F005403000000000D0034088
:1030A00043000000000006404300000000100640FE
:1030B00044000000002006404500000000300640AB
:1030C0005800000000400640590000000050064033
:1030D0005C000000006006406400000000700640D4
:1030E0006C000000008006406D000000009006406B
:1030F0007F0000000040004000800540005000407C
:10310000009005400060004000A0054000700040B5
:1031100000B005400040024000C0054000500240A1
:1031200000D005400060024000E005400070024011
:1031300000F0054000D003400000064000100640AB
:1031400000100640002006400020064000300640E7
:103150000030064000400640004006400050064057
:1031600000500640006006400060064000700640C7
:103170000070064000800640008006400090064037
:103180000090064000070000000600000005000057
:103190000004000000030000000200000001000025
:1031A000000000000000000018ED00E01CED00E051
:1031B00020ED00E000E400E004E400E008E400E0CA
:1031C0000CE400E010E400E014E400E018E400E0A7
:1031D0001CE400E020E400E024E400E028E400E057
:1031E0002CE400E030E400E034E400E038E400E007
:1031F0003CE400E040E400E044E400E048E400E0B7
:103200004CE400E050E400E054E400E058E400E066
:103210005CE400E060E400E064E400E068E400E016
:103220006CE400E070E400E074E400E078E400E0C6
:103230007CE400E080E400E084E400E088E400E076
:1032400000E100E004E100E008E100E00CE100E062
:1032500010E100E080E100E084E100E088E100E0CE
:103260008CE100E090E100E000E200E004E200E038
:1032700008E200E00CE200E010E200E080E200E0A2
:1032800084E200E088E200E08CE200E090E200E00E
:1032900000688909001C4E0E40420F0000201C00EF
:1032A00080841E0000802500999E36000040380072
:1032B00000093D0000803E0000004B00404B4C00E8
:1032C00000204E00808D5B0000C05D00008070001B
:1032D00000127A0000007D0080969800001BB70065
:1032E0000080BB00C0E8CE00647ADA000024F4005D
:1032F0000000FA0080A81201002D310100366E0195
:1033000040787D0140000000000000000001000046
:103310003E0008000000000000010000A0000000C6
:103320000200000000010000345401000000000011
:10333000000100002B7006000000000000010000EA
:10334000280000000000000000010000270001002C
:10335000000000000001000020000000000000004C
:103360000001000050000000020000000001000009
:103370001AAC0000000000000001000017940900D2
:103380000000000000010000169805000000000089
:103390000001000014000000000000000001000017
:1033A000138008000000000000010000A0000000E1
:1033B00008000000000100001000000000000000F4
:1033C00000010000280000000200000000010000D1
:1033D0004000000004000000000100006000000048
:1033E00000000000000100005D000C000000000073
:1033F000000100005000000000000000000100007B
:103400004E000200000000000001000041AC01007D
:1034100000000000000100003C000000000000006F
:10342000000100003A8009000000000000010000D7
:103430003000000000000000000100002800000033
:103440000000000000010000270001000000000053
:1034500000010000236006000000000000010000E1
:103460002160080000000000000100001E000000B4
:1034700000000000000100001DC00400000000006A
:1034800000010000500000000200000000010000E8
:1034900018000000000000000001000014000000FF
:1034A00000000000000100006000000004000000B7
:1034B000000100000024F40030003000005A6202D5
:1034C0009100910000879303D200D20000B4C4049D
:1034D0001301130100E1F50554015401000E270703
:1034E0009501950104350000000000207C010000DA
:1034F0003C020000803500007C010020BC0400007C
:1035000098020000C1F20C32063210A3E507024710
:103510000112013A054C0916500211023A18A01284
:103520001F1A1D045A1E04890A699C293832045A3C
:1035300008BC32203240328018123F065B4F666D65
:103540007D077F6F777C395E79715C321A022E2994
:103550002CBC4C133F8B091498100A46696E697392
:1035600068656421080F11496E76616C69642049B1
:103570006E70757421E0041D6D3E061324F4000086
:0400000500000201F4
:00000001FF
